:0E008400AA83E582900001F0A3EAF01208B30F
:0E009200900001E0FAA3E0FB7C0074075BFD28
:0E00A000A2E7CC33CC33CC540130E00244FE56
:0E00AE00FD4304A08C82C002C0031208EFD0F4
:0E00BC0003D0028A821208EF900000E0FAF5ED
:0B00CA00821208EF1208C29000010231
:0200D5002034D5
:0E00D700AA83E582900003F0A3EAF01208B3BA
:0E00E500900003E0FAA3E0FB7C0074075BFDD3
:0E00F300A2E7CC33CC33CC540130E00244FE03
:0E010100FD74A04CFDF582C002C003C00412C4
:0D010F0008EFD004D003D0028A82C0041291
:0E011C0008EFD004C0041208B3D0044304A1BD
:0E012A008C821208EF758200120949AA82C069
:0E013800021208C2D002900001C00212203450
:05014600D0028A8222B4
:0E014B00AA83E582900007F0A3EAF090000777
:0E015900E0FAA3E0FB900005E0FCA3E0FDEC63
:0E016700C39AFCED9BFDC002C003C004C0059E
:0E0175001208B3D005D004D003D0027E00746F
:0E018300075BFFA2E7CE33CE33CE540130E04F
:030191000244FE27
:0E019400FF74A04EFFF582C002C003C004C07D
:0E01A20005C0061208EFD006D005D004D00329
:0E01B000D0028A82C004C005C0061208EFD03B
:0E01BE0006D005D004C004C005C0061208B368
:0E01CC00D006D005D0044306A18E82C004C028
:0E01DA00051208EFD005D0048C028D037E00C4
:0201E8007F0096
:0A01EA00C3EA9EEB9F50030202726D
:0E01F400EEB50440EFB5053CC002C003EE249A
:0A02020009F8EF3400F9758200C01E
:0E020C0003C004C005C006C007C000C0011238
:0E021A000949AA82D001D000D007D006D00535
:0E022800D004D00388828983EAF0D003D0028C
:02023600803214
:07023800EE2409F508EF3484
:0A023F0000F509758201C002C0033A
:0E024900C004C005C006C007120949A882D033
:0C02570007D006D005D004D003D00285EB
:070263000882850983E8F021
:05026A000EBE00010FB3
:03026F000201EA9F
:0A0272001208C2900001122034901F
:06027C00000975F00022EC
:0146160000A3
:090282007421C0E07439C0E012DF
:0E028B002EF115811581122E1FAA82AB83ACB5
:0D029900F090084EE0FDBD080475820022C3
:0B02A600C002C003C004744EC0E0742E
:0A02B10008C0E0E4C0E0749AC0E069
:0C02BB007439C0E0122EF1E58124FBF53F
:0E02C70081D004D003D0028A828B838CF01287
:0E02D5002B71AA82AB83E4BAFF04BBFF0104C5
:0B02E300FC700890084EE0FDBD0D1BF4
:0B02EE00C002C003C00474B4C0E07480
:0C02F90039C0E0122EF115811581D004EF
:04030500D003D0024F
:06030900EC600302028219
:0B030F0090084EE0FCBC0D03020282CF
:0A031A00C002C00374CCC0E07439C7
:0E032400C0E0122EF115811581D003D002C069
:0E03320002C003122E1FAC82AD83AEF0D003CA
:0E034000D00290084EE0FFBF08047582002234
:0C034E00C002C003C004C005C006744E0D
:0A035A00C0E07408C0E0E4C0E074E5
:080364002BC0E0743AC0E01266
:0E036C002EF1E58124FBF581D006D005D004EA
:0E037A00D003D0028C828D838EF0C002C003AF
:0E038800122B71AC82AD83D003D0028C068D97
:0E03960007C374FF9EE49F400890084EE0FEEF
:0303A400BE0D1F6C
:0C03A700C002C003C004C0057442C0E0E6
:0C03B300743AC0E0122EF115811581D0C3
:0703BF0005D004D003D002B9
:0D03C6008C068D07C374FF9EE49F50030258
:0203D300031A0B
:0B03D50090084EE0FEBE0D0302031A6C
:0E03E000900000ECF08A828B83C002C00312F2
:0E03EE000084D003D0028A828B83C002C00339
:0E03FC001200D7AC82D003D0027D00C002C038
:0A040A0003C004C0057457C0E0747D
:0C0414003AC0E0122EF1E58124FAF581D7
:0404200075820022BF
:09042400747EC0E0743AC0E012DD
:0E042D002EF115811581122E1FAA82AB83AC11
:0D043B00F090084EE0FDBD0804758200221F
:0B044800C002C003C004744EC0E0748A
:0A04530008C0E0E4C0E0749AC0E0C5
:0C045D007439C0E0122EF1E58124FBF59B
:0E04690081D004D003D0028A828B838CF012E3
:0E0477002B71AA82AB8390084EE0FCBC0D17DF
:0A048500C002C00374B4C0E0743973
:0D048F00C0E0122EF115811581D003D002BE
:0B049C0090084EE0FCBC0D030204249D
:0E04A7008A828B83C002C0031200D7AC82D0C1
:0E04B50003D0027D00C002C003C004C0057465
:0804C300F6C0E0743AC0E0123B
:0E04CB002EF115811581D005D004D003D0028A
:0C04D900C002C003C004C0057410C0E0E5
:0C04E500743BC0E0122EF115811581D08F
:0E04F10005D004D003D0029009067403F08AEF
:0E04FF00828B83C004C005122A14D005D004DD
:0A050D00C004C0057412C0E0743B86
:0E051700C0E0122EF115811581D005D00490A0
:0D05250009067402F08C828D83122A147472
:0805320014C0E0743BC0E012AC
:0A053A002EF1158115817582002253
:090544007418C0E0743BC0E01221
:0E054D002EF115811581122E1FAA82AB83ACF0
:0D055B00F090084EE0FDBD080475820022FE
:0B056800C002C003C004744EC0E07469
:0A05730008C0E0E4C0E0749AC0E0A4
:0C057D007439C0E0122EF1E58124FBF57A
:0E05890081D004D003D0028A828B838CF012C2
:070597002B7185820F8583A3
:07059E0010E50FB4FF07E5B3
:0605A50010B4FF02800803
:0805AB0090084EE0FCBC0D0FAE
:0905B30074B4C0E07439C0E01218
:0605BC002EF115811581EE
:0B05C20090084EE0FCBC0D0302054455
:0905CD007499C0E0743BC0E01217
:0E05D6002EF115811581122E1FAC82AD83AE61
:0D05E400F090084EE0FFBF08047582002271
:0B05F100C004C005C006744EC0E074DA
:0A05FC0008C0E0E4C0E0749AC0E01B
:0C0606007439C0E0122EF1E58124FBF5F0
:0E06120081D006D005D0048C828D838EF0122C
:0E0620002B71AC82AD83E4BCFF04BDFF01046E
:0B062E00FE700890084EE0FFBF0D1B9F
:0B063900C004C005C00674B4C0E0742B
:0C06440039C0E0122EF115811581D0069E
:04065000D005D004FD
:06065400EE60030205CD7B
:0B065A0090084EE0FEBE0D030205CD2F
:0A066500C004C0057419C0E0743C25
:0E066F00C0E0122EF115811581D005D0049047
:0B067D000005ECF0A3EDF0850F828576
:0B0688001083C004C00512014B8582E6
:060693000A85830B85F0CF
:0A0699000CD005D004ECC3950FF956
:0906A300ED9510FE09B900010EED
:0C06AC00E9540F6029ECC3950FFEED959A
:0706B80010FF0EBE00010F50
:0E06BF00EFC4CEC4540F6ECE540FCE6ECEFFDD
:0D06CD0090080B74012EF0E43FA3F0802490
:0A06DA00ECC3950FFCED9510FD0C2C
:0406E400BC00010D48
:0E06E800EDC4CCC4540F6CCC540FCC6CCCFDC4
:0806F60090080BECF0A3EDF0FD
:0C06FE0090080BE0FCA3E0FD7E007F00F4
:0A070A00C3EE9CEF9D40030208744B
:0E071400C004C0058E00EFC454F0C8C4C8680D
:0C072200C854F0C868F9E8250FFCE93560
:0C072E0010FDC004C005C006C007C000DC
:0A073A00C0017450C0E0743CC0E040
:0E074400122EF115811581D001D000D007D002
:0E07520006D005D004C004C005C006C007C014
:0A07600000C0017410C0E0743BC03B
:0E076A00E0122EF115811581D001D000D007CC
:0E077800D006D005D0049009067403F08C82E0
:0E0786008D83C004C005C006C007C000C001BE
:0E079400122A14D001D000D007D006D005D014
:0E07A20004C004C005C006C007C000C001743A
:0807B00052C0E0743CC0E012ED
:0E07B8002EF115811581D001D000D007D0069A
:0B07C600D005D004D005D0048E0D8FAC
:0807D1000E741028FBE439FE50
:0D07D900C3E89BE99E5071C004C005E825EF
:0707E6000AFCE9350BFDAA36
:0C07ED000C8C828D838AF01238E4FC7AB8
:0E07F900009009067402F08C828A83C003C04F
:0E08070004C005C006C000C001122A14D001B2
:0E081500D000D006D005D004D003C003C0042C
:0C082300C005C006C000C0017455C0E054
:0C082F00743CC0E0122EF115811581D040
:0E083B0001D000D006D005D004D00308B800CC
:020849000109A3
:06084B00D005D0048088F6
:0A085100C004C0057450C0E0743C00
:0E085B00C0E0122EF115811581D005D0047475
:0908690001250DFEE4350EFF022D
:02087200070A73
:090874007450C0E0743CC0E012B5
:0A087D002EF115811581758200220D
:050887001208B37A0025
:03088C00BA0900A6
:0B088F005009D296D295C2950A80F263
:06089A001208B30208C2BF
:0E3921000D5772697465204D6F646520456E08
:0E392F007465726564210A0D456E7465722020
:0E393D0076616C696420616464726573732046
:0E394B006265747765656E2030303020284844
:0E39590065782920746F20374646202848657F
:0E39670078292E0A0D50726573732062616319
:0E3975006B73706163652028666F6C6C6F77F2
:0E398300656420627920656E74657229207477
:093991006F20657869740A0D00CD
:0E399A000D4164647265737320726563656924
:0C39A800766564203D20307825730A000D
:0E39B4000D456E7465722076616C6964206149
:0A39C200646472657373210A0D003E
:0E39CC000D456E7465722076616C696420642E
:0E39DA00617461206265747765656E2030301F
:0E39E80020284865782920746F204646202844
:0E39F600486578292E0A0D50726573732062A1
:0E3A040061636B73706163652028666F6C6C84
:0E3A12006F77656420627920656E7465722995
:0B3A200020746F20657869740A0D00A7
:0E3A2B000D446174612072656365697665649F
:093A3900203D20307825730A00BD
:0E3A42000D456E7465722076616C69642064B7
:073A5000617461210A0D0001
:0E3A57000D44617461207772697474656E208D
:0E3A65003D2030782578206174206C6F6361FD
:0B3A730074696F6E20307825780A001F
:0E3A7E000D52656164204D6F646520456E74C5
:0E3A8C0065726564210A0D456E7465722076C0
:0E3A9A00616C696420616464726573732062FC
:0E3AA80065747765656E2030303020284865E3
:0E3AB600782920746F2037464620284865780E
:0E3AC400292E0A0D5072657373206261636BC8
:0E3AD20073706163652028666F6C6C6F77659A
:0E3AE0006420627920656E7465722920746F0F
:083AEE0020657869740A0D00DF
:0E3AF6000D2856616C75657320696E20484579
:0C3B04005820666F726D6174290A0A0077
:023B10000D00A6
:023B12003A0077
:043B14000A0A0A008F
:0E3B18004865782044756D70204D6F646520FF
:0E3B2600456E7465726564210A0D456E746506
:0E3B3400722076616C69642073746172742073
:0E3B42006164647265737320626574776565F3
:0E3B50006E2030303020284865782920746FB0
:0E3B5E00203746462028486578292E0A0D504B
:0E3B6C0072657373206261636B7370616365D1
:0E3B7A002028666F6C6C6F776564206279207E
:0E3B8800656E7465722920746F20657869740B
:033B96000A0D0015
:0E3B99000D4865782044756D70204D6F646591
:0E3BA70020456E7465726564210A0D456E74CA
:0E3BB50065722076616C696420656E64206123
:0E3BC300646472657373206265747765656E65
:0E3BD1002030303020284865782920746F207D
:0E3BDF003746462028486578292E0A0D507278
:0E3BED00657373206261636B737061636520A2
:0E3BFB0028666F6C6C6F7765642062792065B8
:0E3C09006E7465722920746F20657869740AE4
:023C17000D009E
:0E3C19000D4845582044554D5020464F52202E
:0E3C2700454550524F4D2E0A0D28416C6C2021
:0E3C350076616C7565732061726520696E2082
:0D3C430048455820464F524D4154290A0073
:023C50000A0068
:033C52003A200015
:033C55002020002C
:0146170000A2
:0608A000D295D2967A0009
:0308A600BA09008C
:0908A9005007C295D2950A80F4B3
:0108B2002223
:0E08B300D296D295C296900001121FF9C295FE
:0108C1002214
:0E08C200C296D295D296900001121FF9C295EF
:0108D0002205
:0E08D100C295C296D295900001121FF9C295F1
:0108DF0022F6
:0E08E000C295D296D295900001121FF9C295D2
:0108EE0022E7
:0D08EF00E58290080DF090080DE0FA7B0006
:0308FC00BB080036
:0908FF00502D8BF005F0EA800297
:0209080025E0E8
:0D090A00D5F0FB5480FCBC8004D296800226
:02091700C29686
:0E091900D295900001C002C003121FF9D00356
:07092700D002C2950B80CE47
:0E092E00D296D295E4A29633FA900001C00250
:0D093C00121FF9D002C295BA00E88A82228B
:0D094900E58290080EF090080FE4F07A08A7
:07095600EA60047B0180024E
:02095D007B001D
:0E095F00EB6052D2953096258A037C001BBBBC
:03096D00FF011C6B
:0A0970008BF005F07B017C0080068F
:06097A00EB2BFBEC33FC4B
:0C098000D5F0F790080FE0FD4BF080234D
:09098C008A037C001BBBFF011C67
:0A0995008BF005F07B007C0080066B
:06099F00EB2BFBEC33FC26
:0A09A500D5F0F790080FE0FD4BF0CD
:0509AF00C2951A80A2B0
:0D09B40090080EE0FABA01051208D1801477
:0D09C100D295D296900001121FF9C29590B8
:0709CE00080FE0FAF5822298
:0909D500D29690080FE0F5822291
:0146180000A1
:0D09DE00E582900810F01208B375824012F7
:0A09EB0008EF900810E0FAF5821200
:0909F50008EF1208C29000010293
:0209FE002034A3
:0D0A00001208B37582411208EF75820012D2
:0E0A0D000949AA82C0021208C2D0029000015C
:0A0A1B00C002122034D0028A8222A9
:0E0A2500E582900812F0900812E0FA24F850D2
:040A330003020AAC04
:070A3700EA2A2A900A3E732F
:070A3E00020A56020A6102E0
:060A45000A6C020A7702B0
:060A4B000A82020A8D027E
:050A51000A98020AA34F
:0B0A5600900811E0FA9008BBF0804B04
:0B0A6100900811E0FA9008BCF0804003
:0B0A6C00900811E0FA9008BDF0803502
:0B0A7700900811E0FA9008BEF0802A01
:0B0A8200900811E0FA9008BFF0801F00
:0B0A8D00900811E0FA9008C0F08014FF
:0B0A9800900811E0FA9008C1F08009FE
:090AA300900811E0FA9008C2F07D
:0D0AAC009008BBE0FA7B005302017B009034
:0E0AB90008BCE025E0FC7D005304027D00EC4B
:0E0AC7004202ED42039008BDE0FC25E025E070
:0E0AD500FC7D005304047D00EC4202ED420360
:0E0AE3009008BEE0FCC40354F8FC7D005304F0
:0E0AF100087D00EC4202ED42039008BFE0FCDD
:0E0AFF00C454F0FC7D005304107D00EC420254
:0E0B0D00ED42039008C0E0FCC42354E0FC7DE0
:0D0B1B00005304207D00EC4202ED420390E7
:0E0B280008C1E0FC030354C0FC7D00530440F0
:0E0B36007D00EC4202ED42039008C2E0FC0399
:0E0B44005480FC7D005304807D00EC4202EDE5
:070B520042038A820209DE62
:0E0B5900E582900814F0900814E0FA24F85099
:040B670003020BE09A
:070B6B00EA2A2A900B7273C5
:070B7200020B8A020B950241
:060B79000BA0020BAB0211
:060B7F000BB6020BC102DF
:050B85000BCC020BD7B0
:0B0B8A00900813E0FA9008B3F0804BD5
:0B0B9500900813E0FA9008B4F08040D4
:0B0BA000900813E0FA9008B5F08035D3
:0B0BAB00900813E0FA9008B6F0802AD2
:0B0BB600900813E0FA9008B7F0801FD1
:0B0BC100900813E0FA9008B8F08014D0
:0B0BCC00900813E0FA9008B9F08009CF
:090BD700900813E0FA9008BAF04E
:0D0BE0009008B3E0FA7B005302017B009007
:0E0BED0008B4E025E0FC7D005304027D00EC1E
:0E0BFB004202ED42039008B5E0FC25E025E043
:0E0C0900FC7D005304047D00EC4202ED42032A
:0E0C17009008B6E0FCC40354F8FC7D005304C2
:0E0C2500087D00EC4202ED42039008B7E0FCAF
:0E0C3300C454F0FC7D005304107D00EC42021E
:0E0C4100ED42039008B8E0FCC42354E0FC7DB3
:0D0C4F00005304207D00EC4202ED420390B2
:0E0C5C0008B9E0FC030354C0FC7D00530440C3
:0E0C6A007D00EC4202ED42039008BAE0FC036C
:0E0C78005480FC7D005304807D00EC4202EDB0
:0D0C860042038A821209DE900814E0FA9001
:0B0C93000813E0FB900811F08A8202B9
:020C9E000A2525
:090CA0007458C0E0743CC0E0127D
:0B0CA9002EF11581158174AAC0E074C3
:0B0CB4003CC0E0122EF11581158112EA
:0D0CBF002DABAA82900815EAF0BA080122B8
:050CCC00BA3102800DA9
:050CD100BA32028008A8
:050CD600BA33028003A7
:030CDB00020D7B8C
:0C0CDE00900815E0FA24D0900815F09062
:0E0CEA000815E0FA8A037C00C002C003C004B3
:090CF8007408C0E0743DC0E01274
:0A0D01002EF1E58124FCF581D002FB
:0A0D0B00C002741CC0E0743DC0E09B
:0E0D1500122EF115811581D002C002122DABF5
:0E0D2300AB82D002900816EBF0BB080280599C
:050D3100BB300280034D
:030D3600BB3125A9
:0C0D3900900816E0FB24D0900816F09003
:0D0D45000816E0FB900813F08A82C002122D
:0C0D52000B59D0029008167408F08013B2
:0A0D5E00C0027466C0E0743DC0E0FE
:090D6800122EF115811581D00253
:0A0D7100900816E0FBBB0892800F0B
:090D7B007487C0E0743DC0E01271
:060D84002EF1158115811E
:0A0D8A00900816E0FABA0802800390
:030D9400020CA0AE
:010D97002239
:090D980074AAC0E0743DC0E01231
:0D0DA1002EF1158115819008B4E0700F74DB
:080DAE00F3C0E0743DC0E01247
:060DB6002EF115811581EC
:0B0DBC009008B5E0700F74F7C0E07401
:0A0DC7003DC0E0122EF115811581E8
:0B0DD1009008B6E0700F74FAC0E074E8
:0A0DDC003DC0E0122EF115811581D3
:0E0DE600122DABAA82900817EAF0BA0801227B
:050DF400BA3102800D80
:050DF900BA320280087F
:050DFE00BA330280037E
:030E0300020EF4E8
:0C0E0600900817E0FA24D0900817F09034
:090E12000817E0FAE4BA02010439
:060E1B00FBE4BA03010430
:080E2100FC8A05E4BA0101049A
:010E2900FACE
:0D0E2A00EA600A9008B4E0FE6003020EF4D6
:0D0E3700EB600A9008B5E0FE6003020EF4C7
:0D0E4400EC600A9008B6E0FE6003020EF4B8
:0C0E5100C002C003C004C00574FDC0E076
:0C0E5D00743DC0E0122EF115811581D00B
:0E0E690005D004D003D002C002C003C004C0F4
:0E0E770005122DABAE82D005D004D003D00200
:0A0E8500900818EEF0BE0802806528
:050E8F00BE30028003EB
:030E9400BE31313B
:0C0E9700900818E0FE24D0900818F0909D
:0E0EA3000818E0FE900811F08D82C002C00316
:0E0EB100C004C005120A25D005D004D003D01D
:090EBF00029008187408F0801F6D
:0C0EC800C002C003C004C005743FC0E0BD
:0C0ED400743EC0E0122EF115811581D093
:070EE00005D004D003D0028D
:0A0EE700900818E0FEBE0802800328
:030EF100020E2AC4
:0A0EF400900818E0FABA0802800323
:030EFE00020D984A
:010F010022CD
:0E0F0200120A00AA829008B3E0FBBB010E8A1F
:0D0F1000037C005303017C009008BBEBF054
:0E0F1D009008B4E0FBBB01148A037C00530370
:0E0F2B0002E4FCC313CB13CBFC9008BCEBF02C
:0E0F39009008B5E0FBBB01198A037C0053034E
:0E0F470004E4FCC313CB13CBC313CB13CBFCBE
:050F55009008BDEBF067
:0E0F5A009008B6E0FBBB011D8A037C00530328
:0E0F680008E4FCC423CBC423541F6BCB541FDE
:090F7600CB6BCBFC9008BEEBF044
:0E0F7F009008B7E0FBBB011B8A037C00530304
:0E0F8D0010E4FCC4CBC4540F6BCB540FCB6BE1
:070F9B00CBFC9008BFEBF056
:0E0FA2009008B8E0FBBB011D8A037C005303DE
:0E0FB00020E4FCC403CBC40354076BCB5407EE
:090FBE00CB6BCBFC9008C0EBF0FA
:0E0FC7009008B9E0FBBB011E8A037C005303B7
:0E0FD50040E4FCA2E7CB33CB33A2E7CB33CB17
:0A0FE30033CB5403FC9008C1EBF07F
:0E0FED009008BAE0FBBB01167B00530280E4C3
:0E0FFB00FBA2E7CA33CA33CA5401FB9008C2F6
:02100900EAF00B
:09100B007463C0E0743EC0E01201
:0B1014002EF1158115817482C0E0747C
:0B101F003EC0E0122EF1158115817417
:08102A0099C0E0743EC0E01221
:0E1032002EF1158115819008B3E0FABA011174
:09104000749FC0E0743EC0E01290
:081049002EF115811581800FC5
:0910510074A7C0E0743EC0E01277
:06105A002EF11581158145
:0C1060009008BBE0FABA011174B0C0E0C7
:0C106C00743EC0E0122EF1158115818049
:011078000F68
:0910790074B6C0E0743EC0E01240
:061082002EF1158115811D
:0910880074BBC0E0743EC0E0122C
:0E1091002EF1158115819008B4E0FABA011114
:09109F00749FC0E0743EC0E01231
:0810A8002EF115811581800F66
:0910B00074A7C0E0743EC0E01218
:0610B9002EF115811581E6
:0C10BF009008BCE0FABA011174B0C0E067
:0C10CB00743EC0E0122EF11581158180EA
:0110D7000F09
:0910D80074B6C0E0743EC0E012E1
:0610E1002EF115811581BE
:0910E70074C1C0E0743EC0E012C7
:0E10F0002EF1158115819008B5E0FABA0111B4
:0910FE00749FC0E0743EC0E012D2
:081107002EF115811581800F06
:09110F0074A7C0E0743EC0E012B8
:061118002EF11581158186
:0C111E009008BDE0FABA011174B0C0E006
:0C112A00743EC0E0122EF115811581808A
:011136000FA9
:0911370074B6C0E0743EC0E01281
:061140002EF1158115815E
:0911460074C7C0E0743EC0E01261
:0E114F002EF1158115819008B6E0FABA011153
:09115D00749FC0E0743EC0E01272
:081166002EF115811581800FA7
:09116E0074A7C0E0743EC0E01259
:061177002EF11581158127
:0C117D009008BEE0FABA011174B0C0E0A6
:0C118900743EC0E0122EF115811581802B
:011195000F4A
:0911960074B6C0E0743EC0E01222
:06119F002EF115811581FF
:0911A50074CDC0E0743EC0E012FC
:0E11AE002EF1158115819008B7E0FABA0111F3
:0911BC00749FC0E0743EC0E01213
:0811C5002EF115811581800F48
:0911CD0074A7C0E0743EC0E012FA
:0611D6002EF115811581C8
:0C11DC009008BFE0FABA011174B0C0E046
:0C11E800743EC0E0122EF11581158180CC
:0111F4000FEB
:0911F50074B6C0E0743EC0E012C3
:0611FE002EF115811581A0
:0912040074D3C0E0743EC0E01296
:0E120D002EF1158115819008B8E0FABA011192
:09121B00749FC0E0743EC0E012B3
:081224002EF115811581800FE8
:09122C0074A7C0E0743EC0E0129A
:061235002EF11581158168
:0C123B009008C0E0FABA011174B0C0E0E5
:0C124700743EC0E0122EF115811581806C
:011253000F8B
:0912540074B6C0E0743EC0E01263
:06125D002EF11581158140
:0912630074D9C0E0743EC0E01231
:0E126C002EF1158115819008B9E0FABA011132
:09127A00749FC0E0743EC0E01254
:081283002EF115811581800F89
:09128B0074A7C0E0743EC0E0123B
:061294002EF11581158109
:0C129A009008C1E0FABA011174B0C0E085
:0C12A600743EC0E0122EF115811581800D
:0112B2000F2C
:0912B30074B6C0E0743EC0E01204
:0612BC002EF115811581E1
:0912C20074DFC0E0743EC0E012CC
:0E12CB002EF1158115819008BAE0FABA0111D2
:0912D900749FC0E0743EC0E012F5
:0812E2002EF115811581800F2A
:0912EA0074A7C0E0743EC0E012DC
:0612F3002EF115811581AA
:0C12F9009008C2E0FABA011074B0C0E026
:0C130500743EC0E0122EF115811581220B
:0913110074B6C0E0743EC0E012A5
:07131A002EF115811581225F
:0E3C58000D313A456E746572207468652070F7
:0E3C6600696E206E6F2E20746F2062652063E1
:0E3C74006F6E666967757265642028626574FC
:0E3C82007765656E203120616E642033292E37
:0E3C9000205072657373206261636B73706104
:0C3C9E00636520746F20657869740A006B
:0E3CAA000D4E6F74653A2050302069732075FE
:0E3CB80073656420617320696E7075742066F8
:0E3CC6006F72206576656E742D636F756E7477
:0E3CD40065722C20503420746F205037206110
:0E3CE20072652075736564206173206F7574C0
:0E3CF000707574206F66206576656E742D63A6
:0A3CFE006F756E7465720A0A0A0001
:0E3D08000D50696E2025642073656C65637430
:063D160065640A0A0A00C0
:0E3D1C000D50726573730A0D302E20546F2007
:0E3D2A00736574206974206173206F75747066
:0E3D380075740A0D312E20546F2073657420AF
:0E3D4600697420617320696E7075740A0D42F5
:0E3D540061636B737061636520746F20657826
:043D620069740A0076
:0E3D66000D496E76616C696420646174612E93
:0E3D740020456E7465722076616C696420646F
:053D82006174610A00FC
:0E3D87000D496E76616C696420696E7075740A
:0E3D95002E20456E7465722076616C69642084
:073DA300696E7075740A00DF
:0E3DAA000D43686F6F7365206F6E65206F6646
:0E3DB8002074686520666F6C6C6F77696E67AB
:0E3DC6002070696E7320746F207772697465C7
:0E3DD40020746F2E205072657373204261635D
:0E3DE2006B737061636520746F20657869747F
:033DF0000A0A00BC
:043DF3000D31090085
:033DF7003209008E
:033DFA00330A0089
:0E3DFD000D50726573733A0A0D303A20546F00
:0E3E0B00206D616B65206974204C6F770A0D85
:0E3E1900313A546F206D616B6520697420484A
:0E3E27006967680A0D4261636B7370616365C1
:0A3E350020746F20657869740A009C
:0E3E3F000D496E76616C696420496E70757471
:0E3E4D002E20496E736572742056616C696494
:083E5B0020496E7075740A0025
:0E3E63000D537461747573206F6620492F4FE4
:0E3E710020457870616E64657220506F727427
:033E7F000A0A002C
:0E3E82000D50696E0909446972656374696FB9
:093E90006E0953746174650A00A7
:063E99000D503009090084
:083E9F00496E707574090900F9
:093EA7004F75747075740909006F
:063EB000486967680A0082
:053EB6004C6F770A00CB
:063EBB000D503109090061
:063EC1000D50320909005A
:063EC7000D503309090053
:063ECD000D50340909004C
:063ED3000D503509090045
:063ED9000D50360909003E
:063EDF000D503709090037
:0146190000A0
:04132100C293D2940D
:0E132500908011E0FA900819F0900819E0FA93
:0D1333005480F0900819E0FABA800280E5BD
:03134000C2942232
:0E134300E58290081AF0121321C293C2947A28
:0E135100107B8090081AE0FC8A828B83F022C9
:0D135F009000141220347582301213439058
:0E136C000006122034758230121343900001E7
:0A137A001220347582301213431262
:0913840013217582381213431283
:09138D00132175820812134312AA
:09139600132175820F121343129A
:09139F001321758206121343129A
:0813A8001321758201021343B9
:0E13B000E58290081BF090081BE0FA4480F0E4
:0E13BE00121321C293C2947A127B8090081BF6
:0D13CC00E0FC8A828B83F0900952ECF02245
:0E13D900E58290081CF090081CE0FA4480F0B9
:0E13E700121321C293C2947A127B8090081CCC
:0813F500E0FC8A828B83F022E8
:0E13FD00E58290081DF090081DE0FAC403542C
:0E140B00F8FA90081D74404AF0121321C293A3
:0E141900C2947A127B8090081DE0FC8A828BC0
:0314270083F0222D
:0C142A00E58290081FF0900820E4F0908C
:0C143600081FE0FA700E90081EE0FB900A
:08144200082074802BF08031BA
:0E144A00BA010E90081EE0FB90082074C02B23
:03145800F0802001
:0E145B00BA020E90081EE0FB90082074902B41
:03146900F0800F01
:0E146C00BA030C90081EE0FA90082074D02AF3
:01147A00F081
:0A147B00900820E0FAF5820213B099
:05148500D310AF01C30C
:0E148A00C0D0121321C293D294908011E0FAC8
:0D149800747F5A4480FAF582D0D092AF22C2
:0E14A500E582900821F0900821E0FABA8F0A43
:0A14B3007582C01213B07582C022CA
:0D14BD00BACF0A7582901213B0758290228A
:0D14CA00BA9F0A7582D01213B07582D0222D
:0E14D70090094FE0FBA3E0FC8A057E00EDB516
:0E14E500030EEEB5040A7582801213B07582F4
:0214F300802255
:0314F5008A8222C6
:0914F80012132175820102134355
:0A150100E582900822F012132190F9
:0A150B000822E0FA6047BA0D012241
:04151500BA0A0122EB
:0E151900900952E0FBF582C0021213B0D0021E
:0E152700C002121485AB82D002D293C29490FF
:0E1535000002C002C003122034D003D0029086
:0E1543008012EAF0900952E0FA900952740109
:071551002AF08B820214A5B1
:011558002270
:0E155900E582900823F0121321D293C29490E1
:0E15670000021220347A127B80900823E0FCF0
:061575008A828B83F02244
:0E157B00E582900824F0121321D293C29490BE
:0E1589000002122034900824E0FA600DBA0D22
:0215970001222F
:04159900BA0A012267
:05159D00908012EAF04D
:0115A2002226
:0E15A300AAF0AB83E582900825F0A3EBF0A33D
:0E15B100EAF09008B2E4F0900825E0FAA3E01A
:0615BF00FBA3E0FC7D002F
:0E15C500ED2AFEE43BFF8C008E828F8388F0BF
:0E15D3001238E4FE60188E82C002C003C0040D
:0E15E100C005121501D005D004D003D0020DB4
:0215EF0080D4A6
:0715F1009008B27401F02222
:0915F80074E5C0E0743EC0E0128D
:081601002EF1158115817A001C
:03160900BA040020
:05160C00400302172657
:0A161100C002741FC0E0743FC0E087
:0C161B00122EF115811581D002C002745E
:0816270021C0E0743FC0E01295
:0E162F002EF115811581D002EAC454F0FB8B18
:0E163D00047D009009067402F08C828D83C03B
:0E164B0002C003122A14D003D002C002C00352
:091659007423C0E0743FC0E012EC
:0E1662002EF115811581D003D002EAFC75F03F
:0916700010A42410FDE435F0FE85
:0E1679008B077800C3EF9DE864808EF063F06D
:081687008095F0400302170CEE
:0E168F00C003C004C005C006121321D006D04F
:0E169D0005D004D003C293C294908012744012
:0E16AB004BFFF0C003C004C005C0061213219F
:0D16B900D006D005D004D003D293D2949077
:0E16C6008011E0FF78009009067402F08F8218
:0E16D4008883C003C004C005C006122A14D0CB
:0E16E20006D005D004D003C003C004C005C06C
:0A16F000067426C0E0743FC0E0124B
:0E16FA002EF115811581D006D005D004D00345
:041708000B02167941
:0A170C00C004741FC0E0743FC0E089
:0E171600122EF115811581D00474012CFA02F7
:021724001609A4
:09172600741FC0E0743FC0E01222
:07172F002EF1158115812246
:0E173600121485AA8290081EE4F0758200C08D
:0C1744000212142AD002C0027429C0E076
:0C175000743FC0E0122EF115811581D00D
:07175C0002D293D2947B003E
:08176300EB24FC500302188D79
:0E176B0090081EE4F08B82C002C00312142A04
:0E177900D003D002C002C003121485E582D056
:0D17870003D002547FFCC002C003C00474F4
:081794001FC0E0743FC0E01229
:0E179C002EF115811581D004D003D002C002B9
:0A17AA00C003C0047421C0E0743FC6
:0E17B400C0E0122EF115811581D004D003D0B3
:0E17C200027D009009067402F08C828D83C0B7
:0E17D00002C003122A14D003D002C002C003CC
:0917DE007423C0E0743FC0E01266
:0E17E7002EF115811581D003D0028B047D00F8
:0E17F500ED24F0407890081EEDF08C82C002CA
:0E180300C003C004C00512142AD005D004D0C2
:0E18110003D002C002C003C004C005121321A0
:0D181F00D005D004D003D002D293D2949013
:0E182C008011E0FE7F009009067402F08E82AB
:0E183A008F83C002C003C004C005122A14D060
:0E18480005D004D003D002C002C003C004C00B
:0A185600057426C0E0743FC0E012E4
:0E1860002EF115811581D005D004D003D002E1
:04186E000D0217F55B
:0A187200C002C003741FC0E0743F01
:0E187C00C0E0122EF115811581D003D0020BB1
:03188A00021763DF
:0A188D00C002741FC0E0743FC0E009
:0E189700122EF115811581D0028A820213B043
:0E18A500E58290082BF0900952E0FAF58212CD
:0818B30013B0121485AA829003
:0E18BB00082BE0FBF582C0021213FDD0029054
:0C18C9000828E0FBA3E0FCA3E0FD7E008B
:0318D500BE08004A
:0E18D8005048EE2BFFE43CF88D018F82888390
:0E18E60089F01238E4FFF582C002C003C0048E
:0E18F400C005C006121559D006D005D004D08C
:0E19020003D002900002C002C003C004C00562
:0E191000C006122034D006D005D004D003D07B
:04191E00020E80B382
:0E192200900952E0FBF582C0021213B0D00211
:0E193000900002C002122034D00290082BE07A
:0E193E00FBF582C002121559D002900952E04A
:0D194C00FB90095274012BF08A820214A551
:0A19590090082FE4F0900830F090A1
:081963000831F0900832F09009
:09196B000833E4F0900834F09018
:071974000835F0900836F081
:09197B007463C0E0743FC0E01287
:0C1984002EF115811581122DABAA829066
:09199000082CEAF0BA08028047B5
:051999008A03BB3000D1
:0E199E0040288A03EB24C84021EA24D0FA90A6
:0C19AC00082CF07B00C002C00374A5C032
:0C19B800E0743FC0E0122EF1E58124FC39
:0419C400F581800F1A
:0919C80074BBC0E0743FC0E012E2
:0619D1002EF115811581C5
:0919D70090082CE0FA24F8409B72
:0A19E00090082CE0FAE4BA080104B4
:0419EA00FA75110079
:0919EE0074F825115003021B8856
:0619F700EA6003021B88F8
:0419FD00AC11851193
:011A010012D2
:0C1A020090082EE4F0AE127F00C002C07D
:0A1A0E0004C006C00774CBC0E074EA
:0C1A18003FC0E0122EF1E58124FCF581B6
:091A2400D004D00290082DE4F07A
:081A2D0090082DE0FEBE05004B
:051A35004003021ADC71
:0E1A3A00C002C004C006122DABAF82D006D091
:0D1A480004D002BF080990082E7408F002B7
:021A55001ADC99
:051A5700BF3002800316
:031A5C00BF314750
:0A1A5F00C002EC242FF8E43408F96B
:0D1A690088828983E0FA7B00EF24D0FF9093
:0E1A7600082DE0FB7D007404C39BFBE49DFD86
:0A1A84008BF005F0AB077D00800633
:061A8E00EB2BFBED33FD24
:0E1A9400D5F0F7741F5B420288828983EAF066
:041AA200D0028027C7
:0D1AA60090082E7401F0C002C004C0067448
:081AB30021C0E07440C0E01204
:0E1ABB002EF115811581D006D004D002EE1454
:041AC90090082DF064
:0D1ACD0090082DE0FB90082D74012BF00215
:021ADA001A2DC3
:0B1ADC0090082EE0FBBB0103021A0281
:061AE700EB6003021B830B
:0A1AED00C0027421C0E0743FC0E0A5
:0B1AF700122EF115811581D0027B003A
:031B0200BB08001D
:051B05004003021B83F8
:0A1B0A00EB242FFCE43408FD7E00FC
:031B1400BE05000B
:0E1B1700504F8C828D83E0FF8E0079007404A5
:0D1B2500C398F8E499F988F005F0EF80020C
:021B3200C313DB
:0E1B3400D5F0FB5401FF7800C002C003C004CE
:0C1B4200C005C006C007C000744BC0E026
:0C1B4E007440C0E0122EF1E58124FCF58B
:0E1B5A0081D006D005D004D003D0020E80AC9E
:0A1B6800C002C003744EC0E07440D8
:0E1B7200C0E0122EF115811581D003D0020BB8
:031B8000021B0243
:051B830005110219EE3E
:0B1B8800E511B4081890082CE0FA905A
:071B93000828742FF0A37471
:0B1B9A0008F0A37400F08A820218A576
:011BA500221D
:0E1BA600AAF0AB83E582900839F0A3EBF0A320
:0E1BB400EAF0900837E0FABA010475820022C8
:0E1BC200900838E0FB8B047D008A067F00C08F
:0E1BD00002C003C006C007C004C005C006C0A6
:0A1BDE00077451C0E07440C0E0122B
:0E1BE8002EF1E58124FAF581D007D006D00356
:0E1BF600D002740F5BFC7D00EE2CFCEF3DFD79
:051C04001CBCFF011DE6
:0E1C0900C3740F9C74808DF063F08095F040E2
:041C170003021C9F09
:0E1C1B0074F05B448FFCF582C002C003C0066B
:0E1C2900C0071214A5AC82D007D006D003D09D
:0E1C370002740F5BFD2A14540F2CF8F582C0C6
:0E1C450002C003C004C005C006C0071213B0E1
:0E1C5300D007D006D005D004D003D002E4F8AC
:0C1C6100F9EE2DFDEF39F91DBDFF011952
:0E1C6D0053050F7900ED2CFCE938F8C002C0D9
:0C1C7B0003C006C007C004C000746DC0A8
:0C1C8700E07440C0E0122EF1E58124FC66
:0C1C9300F581D007D006D003D002801BE2
:0E1C9F0074804B2A14FCF582C002C003C006FC
:0D1CAD00C0071213B0D007D006D003D0023C
:0E1CBA00C002C003C006C007121321D007D01D
:0E1CC80006D003D002D293D294908011E0FC9B
:0E1CD60074804BFD7800EE2DFEEF38FF1EBE31
:031CE400FF011FDE
:0E1CE7008C057800C002C003C004C006C00710
:0A1CF500C005C0007485C0E0744013
:0E1CFF00C0E0122EF1E58124FAF581D004D068
:0E1D0D0003D002900839E0FDA3E0FEA3E0FF42
:0E1D1B00C003EA2DF8E43EF98F0318B8FF016B
:011D290019A0
:0E1D2A00888289838BF01238E4F8ECB500044F
:041D380074018001B1
:011D3C00E4C2
:081D3D00D0037004758201223D
:0E1D45001A900837EAF0900838EBF08D828E85
:061D5300838FF0021BA6C5
:0E1D5900AAF0AB83E58290083CF0A3EBF0A368
:0E1D6700EAF0900841E4F090083CE0C0E0A3F0
:0C1D7500E0C0E0A3E0C0E074AAC0E0748D
:0C1D810040C0E07480C0E0123045E581F5
:0E1D8D0024FAF5819008B2E4F0900952E0FAD1
:0E1D9B00900840F0D293D29490083CE0FAA356
:071DA900E0FBA3E0FC7D005C
:081DB000ED24FC5003021FCCDE
:0E1DB80090081EE4F08D82C002C003C004C07B
:0E1DC6000512142AD005D004D003D002C002AA
:0E1DD400C003C004C005121485E582D005D0FE
:0A1DE20004D003D002547FF518AFBF
:0C1DEC00187800C002C003C004C005C08D
:0C1DF80007C000C007C00074C2C0E07447
:0C1E040040C0E0122EF1E58124FCF581C5
:0D1E1000D000D007D005D004D003D0029040
:0B1E1D00083FE4F08D01900841E0F563
:011E280013A6
:071E290090083FE0F514E50D
:081E30001424F05003021FC24C
:0C1E380090081EE514F08982C002C0036F
:0E1E4400C004C005C007C000C00112142AD09F
:0E1E520001D000D007D005D004D003D002C0CC
:0E1E600002C003C004C005C007C000C00112CC
:0E1E6E001321D001D000D007D005D004D0033E
:0C1E7C00D002D293D294908011E0F515B2
:0C1E88008A828B838CF01238E4FEE51592
:071E9400B506047401800192
:011E9B00E462
:051E9C007003021FB3FA
:061EA100C0018514167556
:071EA7001700E5162FF9E515
:0C1EAE001738FEC002C003C004C005C00D
:0C1EBA0007C000C001C001C00674CCC00D
:0C1EC600E07440C0E0122EF1E58124FC25
:0E1ED200F581D001D000D007D005D004D00398
:0E1EE000D0028A828B838CF0C002C003C00443
:0E1EEE00C005C007C000123891AE82A983D093
:0D1EFC0000D007D005D004D003D0021EE5B1
:051F0900142518F990F9
:0E1F0E000837EEF0900838E9F08A828B838C59
:0E1F1C00F0C002C003C004C005C007C000C072
:0E1F2A0001121BA6E582D001D000D007D00521
:0D1F3800D004D003D002D0017071C001E5CB
:0A1F4500162FFEE51738F9C002C0A0
:0E1F4F0003C004C005C007C000C001C006C02A
:0A1F5D000174F7C0E07440C0E074A6
:0E1F670080C0E0123045E58124FBF581D001F9
:0E1F7500D000D007D005D004D003D0028A825D
:0E1F83008B838CF0C002C003C004C005C007F1
:0E1F9100C000123891AE82A983D000D007D0D4
:0C1F9F0005D004D003D002EE251424FE6F
:081FAB0090083FF00513D0017E
:0D1FB30090083FE0FE90083F74012EF00200
:021FC0001E29D8
:081FC200900841E513F00D0247
:021FCA001DB048
:0C1FCC00900841E0FA70157423C0E07426
:0C1FD80041C0E07480C0E012304515816B
:041FE40015811581CD
:0B1FE800900840E0FAF5821213B09060
:061FF30008B27401F022A7
:0E3EE5000D4845582044554D5020464F522060
:0E3EF3004C434420434752414D2E0A0D2841B6
:0E3F01006C6C2076616C7565732061726520B2
:0E3F0F00696E2048455820464F524D415429B6
:023F1D000A0098
:023F1F000A0096
:023F21000D0091
:033F23003A200041
:033F260020200058
:0E3F29000D4845582044554D5020464F52201B
:0E3F37004C434420444452414D2E0A0D284173
:0E3F45006C6C2076616C75657320617265206E
:0E3F5300696E2048455820464F524D41542972
:023F61000A0054
:0E3F63000D456E74657220636861726163744F
:0E3F7100657220636F6465286265747765650C
:0E3F7F006E203020616E642037292E20507293
:0E3F8D00657373206261636B737061636520FE
:0A3F9B00746F20657869740A0D0048
:0E3FA5000D43686172616374657220636F641E
:083FB30065203D2025640A0091
:0E3FBB000D496E76616C696420696E707574D4
:023FC9000A00EC
:0E3FCB000D456E746572203520706978656C46
:0E3FD9002076616C75657320666F7220726FC2
:0E3FE700772025642028466F726D61743A20A1
:0E3FF5004334204333204332204331204330F5
:0E400300292E205072657373206261636B7307
:0E4011007061636520746F20657869740A0A17
:02401F000D0092
:0E4021000D496E76616C696420696E7075746D
:0E402F002E20506C6561736520656E7465729D
:0E403D002076616C696420696E7075740A00EB
:03404B00256400E9
:03404E000A0D0058
:0E4051000D7374725F6C656E3D25642074659E
:0E405F006D705F61646472203D2025780A0058
:0E406D000D20706F7374207772617020616493
:0A407B0064726573733D25780A0036
:0E4085000D4C6574746572207363616E6E6518
:0E40930064203D202578206174206C6F6361ED
:0940A10074696F6E2025780A0095
:0E40AA000D537472696E672052656365697606
:0A40B80065642069732025730A0077
:0A40C2000D74656D703D25780A004D
:0E40CC000D436861726163746572206D6174EA
:0E40DA0063686564206F6363757272656420AD
:0E40E800617420616464726573732025780A28
:0140F60000C9
:0E40F7000D537472696E67206D6174636820EA
:0E4105006F63637572726564206174204444B8
:0E41130052414D20616464726573733D2578DE
:024121000A0092
:0E4123000D537472696E67206E6F7420666FA4
:05413100756E640A0038
:01461A00009F
:0A006700900848E4F0900849F0907A
:08007100084AF090084BF090E2
:08007900084CE4F090084DF082
:0E1FF900AA83E582900842F0A3EAF090084225
:09200700E0FAA3E0FB7C007D007F
:0E201000C3EC9AED64808BF063F08095F05085
:05201E00147E7D7F002F
:052023001EBEFF011FBD
:0B202800EE4F70F70CBC00E00D80DDF7
:01203300228A
:0E203400AA83E582900844F0A3EAF0900844E5
:09204200E0FAA3E0FB7C007D0044
:0E204B00C3EC9AED64808BF063F08095F0504A
:05205900147E797F00F8
:05205E001EBEFF011F82
:0B206300EE4F70F70CBC00E00D80DDBC
:01206E00224F
:0E206F00121485AA829009517401F07582D96D
:0D207D00C0021213D9D002758230C00212C9
:0E208A00157BD002758230C00212157BD00289
:0E20980075823AC00212157BD002758230C0EC
:0E20A6000212157BD002758230C00212157B2B
:0E20B400D00275822EC00212157BD0027582FA
:0E20C20030C00212157BD002438901758C0DCF
:0D20D000758A2075A883C28DD28CD28890AD
:0A20DD0009527480F08A820213B0E9
:0520E700D310AF01C39E
:0E20EC00C0D0E582900847F0900847E0FA6007
:0B20FA001D900848E4F0900849F090A9
:08210500084AF090084BF0902D
:09210D00084CE4F090084DF002CA
:0221160022663F
:0D211800900848E0FA90084874012AF09001
:0D2125000848E0FA75F00A84FABA0131901A
:0C2132000849E0FA90084974012AF09076
:0E213E000848E4F0900846E0FA60197582DF68
:0E214C001213D9900849E0FA75F00A84E5F004
:08215A002430FAF58212157B16
:0E216200900849E0FA75F00A84FABA01379045
:0C217000084AE0FA90084A74012AF09036
:0E217C000849E4F0900846E0FA601F7582DD25
:0E218A001213D990084AE0FA75F00A84E5F0C5
:0E2198002430FAF58212157B75822E12157B0B
:0E21A60090084AE0FA75F00A84FABA01319006
:0C21B400084BE0FA90084B74012AF090F0
:0E21C000084AE4F0900846E0FA60197582DCE7
:0E21CE001213D990084BE0FA75F00684E5F084
:0821DC002430FAF58212157B94
:0E21E40090084BE0FA75F00684FABA013790C5
:0C21F200084CE0FA90084C74012AF090B0
:0E21FE00084BE4F0900846E0FA601F7582DAA4
:0E220C001213D990084CE0FA75F00A84E5F040
:0E221A002430FAF58212157B75823A12157B7C
:0E22280090084CE0FA75F00A84FABA01319081
:0C223600084DE0FA90084D74012AF09069
:0E224200084CE4F0900846E0FA60197582D965
:0E2250001213D990084DE0FA75F00684E5F0FF
:08225E002430FAF58212157B11
:05226600D0D092AF2270
:06226B00C28C75A80022E0
:0E227100C28C75A80012206F9008B2E0FA909F
:09227F000846F07582010220E717
:06228800D28C75A8822231
:01461B00009E
:0600000002000E0228CEF2
:03000B0002287850
:0300810002228ECA
:05228E0012229380FE06
:0D2293009008C37448F09008C47445F090A2
:0C22A00008C5744CF09008C6744CF09017
:0C22AC0008C7744FF09008C87420F09030
:0C22B80008C97445F09008CA7453F090F7
:0C22C40008CB7444F09008CC745FF090DC
:0C22D00008CD744CF09008CE7441F090E2
:0C22DC0008CF7442F09008D07434F090E9
:0C22E80008D17420F09008D27442F090ED
:0C22F40008D37459F09008D47420F090C6
:0C23000008D57444F09008D67448F090A2
:0C230C0008D77441F09008D87452F0908B
:0C23180008D9744DF09008DA7449F09078
:0C23240008DB744BF09008DC7420F09093
:0C23300008DD7454F09008DE7448F09052
:0C233C0008DF7441F09008E0744BF09052
:0C23480008E1744BF09008E27441F09042
:0C23540008E37452F09008E47420F0904C
:0C23600008E57452F09008E67445F09017
:0C236C0008E77451F09008E87455F090F8
:0C23780008E97449F09008EA7452F090F3
:0C23840008EB7445F09008EC7444F090F5
:0C23900008ED7420F09008EE7445F09009
:0C239C0008EF744CF09008F07445F090CD
:0C23A80008F1744DF09008F27445F090BC
:0C23B40008F3744EF09008F47454F0909C
:0C23C00008F57453F09008F67420F090BB
:0C23CC0008F77449F09008F87432F090A3
:0C23D80008F97443F09008FA7420F090AB
:0C23E40008FB7441F09008FC744EF0906F
:0C23F00008FD7444F09008FE7420F0908A
:0C23FC0008FF744CF09009007443F0904E
:0B24080009017444F0900902E4F09018
:082413000903F0900904F090A8
:0A241B000905F09009527480F0905A
:0C24250008B37401F09008BB7401F09043
:0924310008B4E4F09008BCF0903E
:08243A0008B5F09008BDF09018
:0924420008B6E4F09008BEF09029
:08244B0008B7F09008BFF09003
:0924530008B8E4F09008C0F09014
:08245C0008B9F09008C1F090EE
:0924640008BAE4F09008C2F090FF
:0E246D00094EF0438920758DFD759850D29967
:0A247B00D28E7436C0E07441C0E058
:0B248500122EF11581158112135F90DB
:0B249000081EE4F075820012142A9070
:09249B0008B27401F012206F1266
:0A24A40008A0900951E0FA600B90C7
:0A24AE00094F74D8F0E4A3F0800990
:0924B80090094F74DFF0E4A3F079
:0C24C1009008117401F0758200120A25C9
:0D24CD00122C73122DABAA828A03BB3000C3
:0524DA0050030228661A
:0824DF00EB24A850030228665B
:0E24E700EA24D0FA240983C0E0EA242B83C043
:0224F500E022E3
:0224F700474D4F
:0224F900535935
:0224FB005F651B
:0224FD006B7101
:0224FF009A2F12
:0225010066660C
:0225030066660A
:02250500666608
:02250700666606
:02250900661F4B
:02250B00546614
:02250D00666600
:02250F006666FE
:022511006666FC
:0225130066253B
:022515006666F8
:022517000D5A5B
:02251900131994
:02251B006666F2
:02251D006660F6
:02251F00252570
:0225210025256E
:0225230025256C
:0225250025256A
:02252700252766
:02252900282860
:02252B0028285E
:02252D0028285C
:02252F0028285A
:02253100282858
:02253300282856
:02253500282854
:02253700282852
:02253900282850
:02253B0028284E
:02253D0028284C
:02253F0028284A
:02254100282848
:02254300282846
:02254500282844
:062547001208870224CDFA
:06254D001202820224CDFF
:062553001204240224CD55
:062559001205440224CD2E
:06255F001214F80224CD65
:062565001217360224CD1E
:06256B001215F80224CD58
:092571007440C0E07441C0E012A6
:0A257A002EF115811581122E1F901D
:0A258400084EE0FABA08030224CD65
:0A258E0090084E75F0001215A3022C
:0225980024CD50
:0A259A00900905E0FABA0202805A27
:0A25A400900905E4F0748DC0E074A6
:0B25AE0041C0E0122EF11581158112D2
:0D25B9002DABAA82900903EAF0BA08089041
:0725C60009057408F08031E3
:0525CD008A03BB300091
:0925D20040078A03EB24CC5017EA
:0925DB0074DFC0E07441C0E0129D
:0E25E4002EF1158115819009057401F0800C0F
:0525F2008A03BB30006C
:0725F70040A1EA24CC409C46
:0525FE00900903E0FA62
:0B260300900905E0FBBB010302270764
:06260E00BB0803022707D0
:0C261400EA24D0FA900903F0C00274EE32
:0C262000C0E07441C0E0122EF1158115DD
:0D262C0081D002C002122DABAB82D0029013
:0E2639000904EBF0BB08099009057408F002D3
:02264700270763
:052649008B04BC300011
:09264E0040078B04EC24CE501867
:0926570074DFC0E07441C0E01220
:0D2660002EF1158115819009057402F0021C
:02266D0027073D
:0D266F00EB24D0FB900904F0C002C0031260
:0E267C002DABAC82D003D002BC08099009053A
:06268A007408F0022707AE
:0C269000EC24D0FCEB7005EC24F6400DAF
:0D269C00900904E0FBBB011CEC24FA501770
:0926A90074DFC0E07441C0E012CE
:0E26B2002EF1158115819009057402F0804704
:0E26C000900904E0FB75F00AA49009042CF0C8
:0E26CE007B00900904E0FD8D067F00C002C075
:0C26DC0005C004C003C006C0077457C04E
:0C26E800E07442C0E0122EF1E58124FAFB
:0E26F400F581D005D002900905E4F0ED24F048
:05270200500302260354
:0D270700900905E0FA7016900903E0FB90C0
:0B2714000904E0FC90081EF08B82120C
:05271F00142A0224CD84
:05272400BA0802800369
:0327290002259AEC
:03272C000224CDB7
:0A272F00900905E4F0746AC0E0743C
:0B27390042C0E0122EF1158115811244
:0E2744002E1FAA82AB83ACF090084EE0FDBDC4
:0527520008030224CD84
:0B275700C002C003C004744EC0E07458
:0A27620008C0E0E4C0E074DFC0E04E
:0C276C007442C0E0122EF1E58124FBF560
:0E27780081D004D003D0028A828B838CF012B1
:0E2786002B71AA82AB838A048B05C3740F9C4F
:0E279400E49D504B8A048B05C3EC944FED94EA
:0E27A20000400C8A048B05C3744F9CE49D50CC
:0127B00032F6
:0E27B1008A048B05C3EC9410ED9400400C8A52
:0B27BF00048B05C3741F9CE49D50199F
:0E27CA008A048B05C3EC9450ED940040138AF2
:0B27D800048B05C3745F9CE49D400768
:0727E3008A821213B0801579
:0927EA0074F9C0E07442C0E01271
:0C27F3002EF1158115819009057401F08C
:0B27FF00900905E0FABA010302272F41
:03280A000224CDD8
:06280D0012226B0224CD33
:062813001222710224CD27
:062819001222880224CD0A
:06281F001219590224CD3C
:092825007440C0E07441C0E012EF
:0E282E002EF115811581122E1FAA82AB83ACEC
:0C283C00F090084EE0FDBD08030224CD22
:0C2848008A828B838CF0121D590224CD73
:06285400120CA00224CDCD
:06285A00120F020224CD62
:06286000120D980224CDC8
:0928660074F9C0E07442C0E012F4
:09286F002EF1158115810224CD22
:0E287800C0E0C0F0C082C083C002C003C00434
:0E288600C005C006C007C000C001C0D075D09C
:0C28940000758CDC758A20109102800217
:0228A0008002B4
:0228A200D291D1
:0D28A4009008B2E0FA900846F0758200122C
:0E28B10020E7D0D0D001D000D007D006D0054F
:0E28BF00D004D003D002D083D082D0F0D0E07D
:0128CD0032D8
:0E28CE00C0E0C0F0C082C083C002C003C004DE
:0E28DC00C005C006C007C000C001C0D075D046
:0E28EA000090094EE0FA53020F7B00C002C0BE
:0A28F80003741FC0E07443C0E01237
:0E2902002EF1E58124FCF58190094EE0FA5398
:0E29100002019008BFEAF090094EE05402FA6E
:0E291E00C313FA9008C0F090094EE05404FA7A
:0E292C000303543FFA9008C1F090094EE054A6
:0E293A0008FAC423541FFA9008C2F09008BB9C
:0E294800E0FA7B005302017B009008BCE02502
:0E295600E0FC7D005304027D00EC4202ED42E5
:0E296400039008BDE0FC25E025E0FC7D00535B
:0E29720004047D00EC4202ED42039008BEE03A
:0E298000FCC40354F8FC7D005304087D00ECF9
:0E298E004202ED42039008BFE0FCC454F0FC8E
:0E299C007D005304107D00EC4202ED420390DA
:0E29AA0008C0E0FCC42354E0FC7D0053042070
:0E29B8007D00EC4202ED42039008C1E0FC03FA
:0E29C6000354C0FC7D005304407D00EC42022F
:0E29D400ED42039008C2E0FC035480FC7D003D
:0E29E2005304807D00EC4202ED42038A821213
:0E29F00009DE90094EE02401F0D0D0D001D0D5
:0E29FE0000D007D006D005D004D003D002D000
:082A0C0083D082D0F0D0E0324B
:0A4136000A0D53746172740A0D0043
:0E4140000D456E74657220746865207374728C
:0E414E00696E672E2050726573732062616384
:0E415C006B73706163652028666F6C6C6F7703
:0E416A00656420627920656E74657229207488
:0E4178006F206578697420746F206D61696E28
:07418600206D656E750A0053
:0E418D000D456E7465722074686520582D63B0
:0E419B006F6F7264696E6174652028626574CE
:0E41A9007765656E203020616E642033290A30
:0E41B7000D5072657373206261636B737061EB
:0E41C500636520746F206578697420746F2024
:0C41D3006D61696E206D656E750A0D004F
:0E41DF000D496E76616C696420646174610A3A
:0141ED0000D1
:0E41EE000D456E7465722074686520592D634E
:0E41FC006F6F7264696E61746520286265746D
:0E420A007765656E20303020616E642031359E
:0E421800202820656E74657220696E203220A9
:0E42260064696769747329290A0D5072657303
:0E42340073206261636B737061636520746F49
:0E424200206578697420746F206D61696E20AC
:074250006D656E750A0D009B
:0E4257000D795F636F3D25642C2074656D70DA
:054265003D25640A0084
:0E426A000D456E746572207468652061646491
:0E427800726573732E0A0D4265747765656E6C
:0E4286003A692E20303020616E642030460AE6
:0E4294000D69692E20343020616E642034469E
:0E42A2000A0D6969692E20313020616E64209A
:0E42B00031460A0D697620353020616E64209B
:0E42BE0035460A0D28616C6C2076616C7565C2
:0E42CC007320696E2048455820464F524D41E0
:0542DA0054290A0D004B
:0E42DF000D41646472657373207265636569D6
:0C42ED00766564203D20307825730A00BF
:0E42F9000D496E76616C696420696E70757493
:0E4307002E20456E74657220612076616C690F
:0A4315006420696E7075740A0D00D3
:0E431F000D436F756E742076616C75653D25DB
:03432D00780A000B
:01461C00009D
:02461D0000009B
:01461F00009A
:014620000099
:0E2A1400AA83E582900907F0A3EAF090090773
:0E2A2200E0FAA3E0FB900909EAF0A3EBF090C4
:0C2A30000906E0F5197B007C007D007EAB
:012A3C000099
:0C2A3D00AF197800C3ED9FEE98507B901D
:0E2A49000909E0F9A3E0FA4970050BBB000192
:012A57000C72
:0E2A5800C003C0048D02EECA25E0CA33CA25B1
:0C2A6600E0CA33F98AF005F0751AF0752B
:062A72001BFF751CFF753F
:042A78001D008015A8
:072A7C00E51A25E0F51AE55B
:052A83001B33F51BE50B
:052A88001C33F51CE504
:042A8D001D33F51DE3
:0E2A9100D5F0E8900909E0FAA3E0FBE4FCF9B7
:092A9F00E51A5202E51B5203E5A1
:082AA8001C5204E51D520190CF
:0C2AB0000909EAF0A3EBF00DBD00010ED7
:072ABC00D004D003022A3D03
:062AC3008C027C007D0086
:0E2AC900C3EC9BED9A5025758230C002C0030D
:0E2AD700C004C005C007C000122DB5D000D04D
:0E2AE50007D005D004D003D0020CBC00D70DE2
:022AF30080D48D
:0E2AF500C3EB9FEA98501B900907E0C0E0A3D6
:0A2B0300E0C0E07430C0E07443C08D
:0A2B0D00E0122EF1E58124FCF581B1
:012B1700229B
:0E2B1800E58290090BF090090BE0FABA30004C
:0E2B2600400EEA24C64009EA24D090090BF0C4
:022B34008034EB
:082B360090090BE0FABA41001E
:0E2B3E00400EEA24B94009EA24C990090BF0C0
:022B4C00801CEB
:082B4E0090090BE0FABA6100E6
:0E2B5600400EEA24994009EA24A990090BF0E8
:022B64008004EB
:042B66007582FF2253
:072B6A0090090BE0F5822247
:0E2B7100AAF0AB83E58290090CF0A3EBF0A371
:0E2B7F00EAF090090FE4F0A3F090090CE0FAE0
:082B8D00A3E0FBA3E0FC7D00C6
:0E2B9500ED2AFEE43BFF8C008E828F8388F0D9
:092BA3001238E4F9B90D02804476
:0E2BAC008E828F8388F01238E4F9F582C00221
:0D2BBA00C003C004C005C006C007C0001263
:0E2BC7002B18A982D000D007D006D005D0046C
:0E2BD500D003D0028E828F8388F0E9122ED8B2
:052BE300B9FF028008AB
:082BE800ED24FD40030D80A562
:092BF000ED24FC500490FFFF22CB
:0D2BF90090090CE0FAA3E0FBA3E0FC7E00D5
:0E2C0600C3EE9D505CED2AFFE43BF88C01C04C
:0E2C140002C003C0048E027B00EFC39AFFE8EB
:072C22009BF81FBFFF011822
:0E2C29008F82888389F01238E4FF7A00EE75FE
:0C2C3700F004A4FBACF08BF005F080066C
:062C4300EF2FFFEA33FA57
:0E2C4900D5F0F790090FE0FBA3E0FC90090F17
:0E2C5700EF4BF0EA4CA3F00ED004D003D002F5
:022C6500809F4E
:0C2C670090090FE0FAA3E08A82F58322B6
:052C7300D310AF01C306
:0A2C7800C0D07433C0E07443C0E024
:0C2C8200122EF1158115817439C0E07428
:0B2C8E0043C0E0122EF1158115817487
:082C990055C0E07443C0E012D5
:0B2CA1002EF1158115817471C0E074E4
:0B2CAC0043C0E0122EF1158115817469
:082CB70095C0E07443C0E01277
:0B2CBF002EF11581158174BCC0E0747B
:0B2CCA0043C0E0122EF115811581744B
:082CD500D9C0E07443C0E01215
:0B2CDD002EF1158115817403C0E07416
:0B2CE80044C0E0122EF115811581742C
:082CF3002DC0E07444C0E012A2
:0B2CFB002EF1158115817456C0E074A5
:0B2D060044C0E0122EF115811581740D
:082D110091C0E07444C0E0121F
:0B2D19002EF11581158174CAC0E07412
:0B2D240044C0E0122EF11581158174EF
:082D2F00EDC0E07444C0E012A5
:0B2D37002EF1158115817411C0E074AD
:0B2D420045C0E0122EF11581158174D0
:082D4D0037C0E07445C0E0123C
:0B2D55002EF115811581745DC0E07443
:0B2D600045C0E0122EF11581158174B2
:082D6B0086C0E07445C0E012CF
:0B2D73002EF11581158174ACC0E074D6
:0B2D7E0045C0E0122EF1158115817494
:082D8900DAC0E07445C0E0125D
:0B2D91002EF1158115817433C0E07431
:0C2D9C0043C0E0122EF115811581D0D04B
:032DA80092AF22C5
:03433000257800ED
:064333000A0A0A0A0D004F
:0E4339000D303A5072657373203020746F207F
:0E434700524553455420454550524F4D0A00F3
:0E4355000D313A507265737320312057726932
:0E436300746520546F20454550524F4D0A009E
:0E4371000D323A5072657373203220746F2043
:0E437F00526561642066726F6D20746865205F
:08438D00454550524F4D0A0056
:0E4395000D333A5072657373203320746F201D
:0E43A3006765742074686520454550524F4D83
:0B43B100204845582044554D500A009C
:0E43BC000D343A5072657373203420746F20F4
:0E43CA00636C65617220746865204C43440A80
:0143D80000E4
:0E43D9000D353A5072657373203520746F20D5
:0E43E70067657420746865204C43442044448C
:0E43F50052414D204845582044554D500A0075
:0E4403000D363A5072657373203620746F20A8
:0E44110067657420746865204C43442043475F
:0E441F0052414D204845582044554D500A004A
:0E442D000D373A5072657373203720746F207C
:0E443B007072696E74206120737472696E670E
:0D444900206F6E20746865204C43440A000B
:0E4456000D383A5072657373203820746F2051
:0E446400676F20746F2074686520646573694B
:0E44720072656420582C5920636F6F72646964
:0E4480006E617465206F6E20746865204C4379
:03448E00440A00DD
:0E4491000D393A5072657373203920746F2014
:0E449F00676F206F6E20746865206465736916
:0E44AD007265642061646472657373206C6FC5
:0E44BB00636174696F6E20696E204C43440A81
:0144C90000F2
:0E44CA000D503A5072657373205020746F20AD
:0E44D80053544F50207468652074696D652D33
:0744E600636C6F636B0A00B9
:0E44ED000D523A5072657373205220746F2086
:0E44FB005245534554207468652074696D6500
:084509002D636C6F636B0A0067
:0E4511000D533A5072657373205320746F205F
:0E451F0052455354415254207468652074690B
:0A452D006D652D636C6F636B0A006F
:0E4537000D433A5072657373204320746F2059
:0E4545005072696E7420637573746F6D2D6310
:0A45530068617261637465720A000A
:0E455D000D4D3A5072657373204D20746F201F
:0E456B004D61746368206120737472696E671D
:0D457900206F6E20746865204C43440A00DA
:0E4586000D443A5072657373204420746F2008
:0E459400436F6E66696775726520492F4F2070
:0A45A200457870616E6465720A00CE
:0E45AC000D513A5072657373205120746F20C8
:0E45BA0067657420737461747573206F6620DA
:0E45C80074686520492F4F20457870616E643D
:0445D60065720A0000
:0E45DA000D573A5072657373205720746F208E
:0E45E800616E206F75747075742070696E209E
:0E45F6006F662074686520492F4F204578704D
:07460400616E6465720A009B
:014621000098
:0A2DAB003098FDAA99C2988A82228E
:062DB500E582900911F017
:052DBB0010990280FBED
:072DC000900911E0F59922D2
:0E2DC700AAF0AB83E582900912F0A3EBF0A313
:0E2DD500EAF0D299900912E0FAA3E0FBA3E025
:012DE300FCF3
:0E2DE4008A828B838CF01238E4FD60238D828E
:0E2DF200C002C003C004122DB5D004D003D01F
:062E0000020ABA00010BFA
:0D2E0600900912EAF0A3EBF0A3ECF080D1EC
:0C2E1300900912EAF0A3EBF0A3ECF0220F
:082E1F00900915744EF0A37434
:0A2E270008F0A3E4F0C2987A4E7B95
:052E3100087C007D009B
:0E2E3600ED2AFEE43BFF8C00C002C003C00486
:0E2E4400EE24FFF9EF34FFFA880389828A83B7
:0B2E52008BF01238E4F9E4B90D010424
:0D2E5D00D004D003D0027033B90A02802ED9
:0E2E6A00C002C003C004C005C006C007C000FF
:0E2E7800122DABA982D000D007D006D005D015
:0D2E860004D003D0028E828F8388F0E91201
:052E93002ED80D809E09
:0E2E9800900915E0FAA3E0FBA3E0FCED2AFD93
:0D2EA600E43BFE8C078D828E838FF0E412DA
:092EB3002ED890084E75F00022A3
:062EBC00E582900918F008
:0C2EC2003099FD900918E0F599C29922A2
:052ECE0010980280FBDA
:052ED300AA998A822289
:014622000097
:06003D00E478FFF6D8FD97
:08001B00790DE94400601B7A35
:05002300019046167873
:030028004875A078
:0A002B0009E493F2A308B8000205EF
:08003500A0D9F4DAF275A0FF76
:0E2ED80020F71030F6118883A88220F507F647
:052EE600A883758300C4
:012EEB0022C4
:032EEC00F280F77A
:022EEF00F022CF
:052EF100C01E85811EDA
:0B2EF600E51E24FDF886831886821874
:0E2F0100E493A324DB600C24256005122FDE70
:022F0F0080F050
:032F1100022FF696
:092F1400D2D5E493A3C083C0826E
:032F1D00B4731476
:092F200086F018868318868218D9
:0B2F29001238E46053A3122FDE80F585
:0A2F3400B46307E618122FDE804395
:0E2F3E00B46417E630E74618E6F42401F608FE
:0C2F4C00E6F43400F6742D122FDE803302
:0A2F5800B4782D868318868218E4F1
:0B2F6200122FCFE583122FCEE5831263
:0A2F6D002FCFE582122FCEE582126D
:0A2F77002FCF30D5057430122FDE85
:072F8100D082D083022F0172
:032F8800B475F627
:062F8B00E6FA18E6F91851
:0D2F91007C107D27122FB9FF7CE87D031214
:0E2F9E002FB9C4F5837C647D00122FB94283E5
:0D2FAC00E975F00A84C445F0F582EF80A9B4
:022FB9007B009B
:0E2FBB000BC3E99CF9EA9DFA50F61BE92CF9CC
:052FC900EA3DFAEB22D5
:012FCE00C43E
:072FCF00540F700320D51F11
:082FD600C2D52490D43440D48C
:0E2FDE00C083C082C0F0F582E8C0E0122EBCB5
:092FEC00D0E0F8D0F0D082D083CF
:012FF50022B9
:032FF600D01E22C8
:080043007800E84400600A792E
:03004B000075A09D
:06004E0000E4F309D8FCF8
:080054007848E84409600C79CA
:0B005C000A900000E4F0A3D8FCD9FAE1
:082FF900C01E85811EAA821290
:053001002EBCD01E22D0
:0E300600AAF0AB83E58290091BF0A3EBF0A3C8
:0E301400EAF090091BE0FAA3E0FBA3E0FC90B9
:0E302200091AE0FD90092EE4F0A3F0A3F0904F
:0E3030000931EAF0A3EBF0A3ECF0900934EDC7
:07303E00F0902FF902315E52
:06304500C01E85811EE59E
:0C304B001E24FBFA90092EE4F0A3F0A371
:0C305700F0E51E24FBF8900931E6F008BB
:0D306300A3E6F008A3E6F0900934EAF0902F
:0A3070002FF912315EAA82AB83D063
:02307A001E2214
:0C307C00E58290092AF090092AE0FA9001
:0E3088000920E0C0E0A3E0C0E0A3E0C0E074D7
:08309600AAC0E07430C0E09014
:0C309E00091EE0C0E0A3E0C0E08A82222E
:0E30AA00158115811581900928E0FAA3E0FB3D
:0C30B80090092874012AF0E43BA3F022E8
:0E30C400E58290092BF090092BE0FA74302A77
:0C30D200FA24C6500A74072AFA300003E2
:0330DE004302208A
:0530E1008A8202307C30
:0E30E600E58290092CF090092CE0FAC4540FFA
:0E30F400FBF582C0021230C4D00253020F8AD4
:04310200820230C451
:0E310600E58290092DF0900923E0FAA3E0FB8A
:0E311400A3E0FCA3E0FD900927E0FE90092D4A
:04312200E0FF782032
:0E312600EE2EFEED235401F94206EA2AFAEBE2
:0E31340033FBEC33FCED33FDC3EE9F4007EEA2
:06314200C39FFE430201E1
:0E314800D8DC900923EAF0A3EBF0A3ECF0A38F
:08315600EDF0900927EEF022D4
:0E315E00AA83E582900935F0A3EAF0900935C6
:0E316C00E0FAA3E0FB90091EEAF0A3EBF0905E
:0E317A00092EE0FAA3E0FBA3E0FC900920EA96
:0E318800F0A3EBF0A3ECF0900928E4F0A3F024
:0E319600900931E0FAA3E0FBA3E0FC8A828BF3
:0E31A400838CF01238E4FD90093174012AF09A
:0D31B200E43BA3F0A3ECF0ED7003023885C0
:0531BF00BD25028003A4
:0331C40002387D51
:0531C700C201C202C2BA
:0431CC0003C204C274
:0431D00005C206C26C
:0431D40007C2089096
:0931D8000937E4F0900938F09089
:0E31E100093974FFF0900931E0FAA3E0FBA376
:0231EF00E0FC02
:0E31F1008A828B838CF01238E4FEA3AA82AB94
:0D31FF0083900931EAF0A3EBF0A3ECF0900F
:0D320C00093BEEF0BE25088E8212307C02D8
:023219003196EC
:05321B008E07BF30002A
:0E32200040498E07EF24C64042900939E0FF76
:0E322E00BFFF29C002C003C004900938E0FAB7
:0E323C0075F00AA4FAEE24D09009382AF0901A
:0D324A000938E0FAD004D003D002709BD206
:033257000280975B
:0E325A00EF75F00AA4FFEE24D09009392FF092
:033268000231F13F
:0E326B0090093BE0FEBE2E08900939E4F00207
:0232790031F131
:0E327B008E82C002C003C004C006123904E5F2
:0C3289008224FF9200D006D004D003D0B5
:0B3295000230000790093B74DF5EF080
:0A32A00090093BE0FEBE20028055BD
:0532AA00BE2B02804B69
:0532AF00BE2D0280416C
:0532B400BE4202804B48
:0532B900BE430280503D
:0632BE00BE44030234F2DD
:0632C400BE4603023514B2
:0632CA00BE49030234F2CC
:0532D000BE4C02803439
:0632D500BE4F030234FCB1
:0632DB00BE500302345452
:0532E100BE5302804213
:0632E600BE550302350491
:0632EC00BE580302350C80
:0332F2000235188A
:0532F500D2010231F1DD
:0532FA00D2030231F1D6
:0532FF00D2040231F1D0
:05330400D2060231F1C8
:05330900D2070231F1C2
:0E330E00900934E0FA24FEF8900934F08602AB
:0C331C00088603188A8212307C023524D7
:0E332800900934E0FA24FDF8900934F0860292
:0E3336000886030886041818900923EAF0A3FD
:0E334400EBF0A3ECF0900923E0FAA3E0FBA36A
:0E335200E0FC8A828B838CF0123891AA82AB49
:0E33600083900939E0FBBBFF05900939EAF0C4
:0C336E00200138900938E0FBC3EA9B50B6
:0D337A002E900938EBC39AF0900938E0FB63
:0D3387008B041B900938EBF0BC0002801095
:0E339400758220C002C00312307CD003D0022C
:0233A20080E3C6
:0533A400900938EBF078
:0533A900900939E0FD70
:0E33AE00C002900923E0FCA3E0FFA3E0FA8C2C
:0E33BC00828F838AF01238E4D00260538D04B1
:0E33CA001DC374808CF063F08095F05044C0F9
:0A33D80002900923E0F522A3E0F5BE
:0833E20023A3E0F5247401258A
:0733EA0022FBE43523FAACDD
:0C33F10024900923EBF0A3EAF0A3ECF019
:0733FD0085228285238385F0
:0C34040024F01238E4FAF582C002C00582
:0B34100012307CD005D002D002809367
:06341B002001030235242C
:0D342100900938E0FBC3EA9B40030235240C
:0C342E00900938EBC39AF0900938E0FADE
:0E343A008A031A900938EAF0BB000302351F1E
:0C344800758220C00212307CD00280E6A9
:0E345400900934E0FB24FDF8900934F0860363
:0E3462000886040886071818900923EBF0A3CB
:0E347000ECF0A3EFF0900925E0FB247F50085C
:08347E0090093B7443F080202B
:0D348600EB249F500890093B7450F0801318
:0D349300EB24BF500890093B7449F08006FF
:0634A00090093B7458F096
:0E34A60090093BE0FBF582C00312307CD0039E
:0E34B40075823AC00312307CD003758230C09E
:0E34C2000312307CD003758278C00312307C78
:0734D000D003BB4902800F8D
:0534D700BB5002800A59
:0A34DC00900924E0FBF5821230E6AF
:0C34E600900923E0FBF5821230E68032F2
:0A34F200D205900937740AF0802813
:0834FC009009377408F08020EC
:08350400900937740AF08018E9
:08350C009009377410F08010E3
:04351400D208800C4D
:073518008E8212307C800559
:05351F00900938EAF0FC
:0C35240030086B900934E0FA24FCF890A9
:0E3530000934F0860208860308860408860621
:0E353E00181818900923EAF0A3EBF0A3ECF0A4
:0B354C00A3EEF0900923740BF0A374B1
:0635570046F0A37480F0B1
:0E355D00900923E0FBA3E0FCA3E0FD74012B2A
:0E356B00FEE43CFF8D02900923EEF0A3EFF08A
:0E357900A3EAF08B828C838DF01238E4FA7096
:043587000302319674
:07358B008A8212307C80CB24
:0B359200900937E0FABA0003023196FE
:08359D009009427441F0A3748F
:0635A50009F030064C9015
:0E35AB000934E0FA14F8900934F08602EA338D
:0E35B90095E0FBFCFE900923EAF0A3EBF0A3E3
:0B35C700ECF0A3EEF030050302366CC0
:0E35D200900923E0FAA3E0FBA3E0FCA3E0FED7
:0E35E0007B007C007E00900923EAF0A3EBF054
:0835EE00A3ECF0A3EEF08076DF
:0C35F60030072A900934E0FA24FCF89019
:0E3602000934F086020886030886040886064E
:0E361000181818900923EAF0A3EBF0A3ECF0D1
:05361E00A3EEF080495D
:0E362300900934E0FA24FEF8900934F0860293
:0E36310008860318EB3395E0FCFE900923EAAF
:0C363F00F0A3EBF0A3ECF0A3EEF02005EC
:0E364B0020900923E0FAA3E0FBA3E0FCA3E03B
:0E365900FE7C007E00900923EAF0A3EBF0A3B4
:05366700ECF0A3EEF001
:0C366C0030053E900923E0FAA3E0FBA328
:0E367800E0FCA3E0FE30E72B900923E0FAA36C
:0E368600E0FBA3E0FCA3E0FEC3E49AFAE49BA1
:0E369400FBE49CFCE49EFE900923EAF0A3EB0D
:0936A200F0A3ECF0A3EEF08002AD
:0236AB00C20556
:0836AD00D209900937E0FC7519
:0336B50025417537
:0436B80026097D0062
:0E36BC00900927E4F08C82C004C0051231068C
:0C36CA00D005D004200932C0049009276C
:0A36D600E0FFC4FF852582852683EE
:0A36E000E0FA420785258285268363
:0A36EA00EFF0152574FFB525021559
:0136F40026AF
:0836F500900942E525F0A3E570
:0636FD0026F0D004800C51
:09370300900927E0FF852582856D
:03370C002683F021
:09370F000D90093AEDF0B20990A9
:0E3718000923E0FFA3E0FAA3E0FEA3E0FBEF2D
:0C3726004A4E4B7091900942E525F0A33B
:09373200E526F090093AEDF09053
:0C373B000938E0FA70069009387401F0BB
:0A37470020022720012474012DFA4E
:05375100900938E0FBC7
:0D375600C3EA9B5011758220C002C003120F
:09376300307CD003D0021B80EA87
:05376C00900938EBF0AC
:0A37710030051275822D12307C9095
:0B377B000938E0FA14900938F0802FA4
:0C37860090093AE0FA60283003127582C6
:0B3792002B12307C900938E0FA1490F4
:05379D000938F0801363
:0A37A20030041075822012307C9074
:0937AC000938E0FA14900938F024
:0937B50020012F90093AE0FA907E
:0437BE000938E0FBEB
:0E37C2008B041B900938EBF0C3EA9C503630A4
:0637D00002047C308002BF
:0237D6007C2055
:0E37D8008C82C002C00312307CD003D002806D
:0137E600DB07
:0E37E700900938E0FA90093AE0FCC39A5009C4
:0937F500900938EAC39CF0800C35
:0737FE00900938E4F080059A
:05380500900938EBF012
:0D380A00900942E0FAA3E0FB90093AE0FCCF
:0A3817008C061CEE6040B209200987
:06382100150ABA00010BBC
:0E3827008A828B83E0FEC4540FFE900927F0C6
:02383500800E03
:0E3837008A828B83E0FE53060F900927EEF085
:0E384500900927E0FEF582C002C003C0041205
:0A38530030C4D004D003D00280BAC4
:06385D0020010302319678
:05386300900938E0FAB5
:093868008A031AEB700302319689
:0C387100758220C00212307CD00280EB77
:08387D008D8212307C023196AD
:0C388500900928E0FAA3E08A82F5832273
:0B460B003C4E4F20464C4F41543E00F7
:0E389100AAF0AB83E582900944F0A3EBF0A30C
:0E389F00EAF07A007B00900944E0FCA3E0FD13
:0338AD00A3E0FE97
:0E38B0008C828D838EF01238E4FFA3AC82ADC3
:0E38BE0083900944ECF0A3EDF0A3EEF0EF6070
:0838CC00070ABA00DF0B80DCE3
:0E38D400900944ECF0A3EDF0A3EEF08A828B95
:0238E20083223F
:03000E00758126D3
:0A001100123900E582600302228E1E
:0E38E40020F71430F6148883A88220F507E63A
:0638F200A883758300228B
:0338F800E280F774
:0338FB00E4932231
:0238FE00E022C6
:0439000075820022AA
:0E390400E582900947F0900947E0FABA6100A9
:0B3912004009EA248540047582012270
:04391D00758200228D
:00000001FF
